{
  "_format": "hh-sol-artifact-1",
  "contractName": "AEML",
  "sourceName": "contracts/AEML.sol",
  "abi": [
    {
      "inputs": [],
      "stateMutability": "nonpayable",
      "type": "constructor"
    },
    {
      "inputs": [
        {
          "internalType": "address",
          "name": "sender",
          "type": "address"
        },
        {
          "internalType": "uint256",
          "name": "tokenId",
          "type": "uint256"
        },
        {
          "internalType": "address",
          "name": "owner",
          "type": "address"
        }
      ],
      "name": "ERC721IncorrectOwner",
      "type": "error"
    },
    {
      "inputs": [
        {
          "internalType": "address",
          "name": "operator",
          "type": "address"
        },
        {
          "internalType": "uint256",
          "name": "tokenId",
          "type": "uint256"
        }
      ],
      "name": "ERC721InsufficientApproval",
      "type": "error"
    },
    {
      "inputs": [
        {
          "internalType": "address",
          "name": "approver",
          "type": "address"
        }
      ],
      "name": "ERC721InvalidApprover",
      "type": "error"
    },
    {
      "inputs": [
        {
          "internalType": "address",
          "name": "operator",
          "type": "address"
        }
      ],
      "name": "ERC721InvalidOperator",
      "type": "error"
    },
    {
      "inputs": [
        {
          "internalType": "address",
          "name": "owner",
          "type": "address"
        }
      ],
      "name": "ERC721InvalidOwner",
      "type": "error"
    },
    {
      "inputs": [
        {
          "internalType": "address",
          "name": "receiver",
          "type": "address"
        }
      ],
      "name": "ERC721InvalidReceiver",
      "type": "error"
    },
    {
      "inputs": [
        {
          "internalType": "address",
          "name": "sender",
          "type": "address"
        }
      ],
      "name": "ERC721InvalidSender",
      "type": "error"
    },
    {
      "inputs": [
        {
          "internalType": "uint256",
          "name": "tokenId",
          "type": "uint256"
        }
      ],
      "name": "ERC721NonexistentToken",
      "type": "error"
    },
    {
      "anonymous": false,
      "inputs": [
        {
          "indexed": true,
          "internalType": "address",
          "name": "owner",
          "type": "address"
        },
        {
          "indexed": true,
          "internalType": "address",
          "name": "approved",
          "type": "address"
        },
        {
          "indexed": true,
          "internalType": "uint256",
          "name": "tokenId",
          "type": "uint256"
        }
      ],
      "name": "Approval",
      "type": "event"
    },
    {
      "anonymous": false,
      "inputs": [
        {
          "indexed": true,
          "internalType": "address",
          "name": "owner",
          "type": "address"
        },
        {
          "indexed": true,
          "internalType": "address",
          "name": "operator",
          "type": "address"
        },
        {
          "indexed": false,
          "internalType": "bool",
          "name": "approved",
          "type": "bool"
        }
      ],
      "name": "ApprovalForAll",
      "type": "event"
    },
    {
      "anonymous": false,
      "inputs": [
        {
          "indexed": true,
          "internalType": "address",
          "name": "from",
          "type": "address"
        },
        {
          "indexed": true,
          "internalType": "address",
          "name": "to",
          "type": "address"
        },
        {
          "indexed": true,
          "internalType": "uint256",
          "name": "tokenId",
          "type": "uint256"
        }
      ],
      "name": "Transfer",
      "type": "event"
    },
    {
      "inputs": [
        {
          "internalType": "uint256",
          "name": "cert_no",
          "type": "uint256"
        }
      ],
      "name": "_exists",
      "outputs": [
        {
          "internalType": "bool",
          "name": "",
          "type": "bool"
        }
      ],
      "stateMutability": "view",
      "type": "function"
    },
    {
      "inputs": [
        {
          "internalType": "address",
          "name": "to",
          "type": "address"
        },
        {
          "internalType": "uint256",
          "name": "tokenId",
          "type": "uint256"
        }
      ],
      "name": "approve",
      "outputs": [],
      "stateMutability": "nonpayable",
      "type": "function"
    },
    {
      "inputs": [
        {
          "internalType": "address",
          "name": "owner",
          "type": "address"
        }
      ],
      "name": "balanceOf",
      "outputs": [
        {
          "internalType": "uint256",
          "name": "",
          "type": "uint256"
        }
      ],
      "stateMutability": "view",
      "type": "function"
    },
    {
      "inputs": [],
      "name": "getAllGreenEnergyAssets",
      "outputs": [
        {
          "components": [
            {
              "internalType": "uint256",
              "name": "cert_no",
              "type": "uint256"
            },
            {
              "internalType": "address",
              "name": "owner",
              "type": "address"
            },
            {
              "internalType": "string",
              "name": "status",
              "type": "string"
            },
            {
              "internalType": "bool",
              "name": "retired",
              "type": "bool"
            },
            {
              "internalType": "uint256",
              "name": "units_consumed",
              "type": "uint256"
            },
            {
              "internalType": "uint256",
              "name": "date",
              "type": "uint256"
            }
          ],
          "internalType": "struct AEML.GreenEnergyAsset[]",
          "name": "",
          "type": "tuple[]"
        }
      ],
      "stateMutability": "view",
      "type": "function"
    },
    {
      "inputs": [
        {
          "internalType": "uint256",
          "name": "tokenId",
          "type": "uint256"
        }
      ],
      "name": "getApproved",
      "outputs": [
        {
          "internalType": "address",
          "name": "",
          "type": "address"
        }
      ],
      "stateMutability": "view",
      "type": "function"
    },
    {
      "inputs": [
        {
          "internalType": "uint256",
          "name": "cert_no",
          "type": "uint256"
        }
      ],
      "name": "getGreenEnergyAsset",
      "outputs": [
        {
          "internalType": "uint256",
          "name": "",
          "type": "uint256"
        },
        {
          "internalType": "address",
          "name": "",
          "type": "address"
        },
        {
          "internalType": "string",
          "name": "",
          "type": "string"
        },
        {
          "internalType": "bool",
          "name": "",
          "type": "bool"
        },
        {
          "internalType": "uint256",
          "name": "",
          "type": "uint256"
        },
        {
          "internalType": "uint256",
          "name": "",
          "type": "uint256"
        }
      ],
      "stateMutability": "view",
      "type": "function"
    },
    {
      "inputs": [
        {
          "internalType": "uint256",
          "name": "cert_no",
          "type": "uint256"
        }
      ],
      "name": "getPreviousOwner",
      "outputs": [
        {
          "internalType": "address",
          "name": "",
          "type": "address"
        }
      ],
      "stateMutability": "view",
      "type": "function"
    },
    {
      "inputs": [
        {
          "internalType": "address",
          "name": "owner",
          "type": "address"
        },
        {
          "internalType": "address",
          "name": "operator",
          "type": "address"
        }
      ],
      "name": "isApprovedForAll",
      "outputs": [
        {
          "internalType": "bool",
          "name": "",
          "type": "bool"
        }
      ],
      "stateMutability": "view",
      "type": "function"
    },
    {
      "inputs": [
        {
          "internalType": "uint256",
          "name": "cert_no",
          "type": "uint256"
        },
        {
          "internalType": "uint256",
          "name": "units_consumed",
          "type": "uint256"
        },
        {
          "internalType": "uint256",
          "name": "date",
          "type": "uint256"
        }
      ],
      "name": "mintGreenEnergyToken",
      "outputs": [],
      "stateMutability": "nonpayable",
      "type": "function"
    },
    {
      "inputs": [],
      "name": "name",
      "outputs": [
        {
          "internalType": "string",
          "name": "",
          "type": "string"
        }
      ],
      "stateMutability": "view",
      "type": "function"
    },
    {
      "inputs": [
        {
          "internalType": "uint256",
          "name": "tokenId",
          "type": "uint256"
        }
      ],
      "name": "ownerOf",
      "outputs": [
        {
          "internalType": "address",
          "name": "",
          "type": "address"
        }
      ],
      "stateMutability": "view",
      "type": "function"
    },
    {
      "inputs": [
        {
          "internalType": "uint256",
          "name": "cert_no",
          "type": "uint256"
        }
      ],
      "name": "retireGreenEnergyToken",
      "outputs": [],
      "stateMutability": "nonpayable",
      "type": "function"
    },
    {
      "inputs": [
        {
          "internalType": "address",
          "name": "from",
          "type": "address"
        },
        {
          "internalType": "address",
          "name": "to",
          "type": "address"
        },
        {
          "internalType": "uint256",
          "name": "tokenId",
          "type": "uint256"
        }
      ],
      "name": "safeTransferFrom",
      "outputs": [],
      "stateMutability": "nonpayable",
      "type": "function"
    },
    {
      "inputs": [
        {
          "internalType": "address",
          "name": "from",
          "type": "address"
        },
        {
          "internalType": "address",
          "name": "to",
          "type": "address"
        },
        {
          "internalType": "uint256",
          "name": "tokenId",
          "type": "uint256"
        },
        {
          "internalType": "bytes",
          "name": "data",
          "type": "bytes"
        }
      ],
      "name": "safeTransferFrom",
      "outputs": [],
      "stateMutability": "nonpayable",
      "type": "function"
    },
    {
      "inputs": [
        {
          "internalType": "address",
          "name": "operator",
          "type": "address"
        },
        {
          "internalType": "bool",
          "name": "approved",
          "type": "bool"
        }
      ],
      "name": "setApprovalForAll",
      "outputs": [],
      "stateMutability": "nonpayable",
      "type": "function"
    },
    {
      "inputs": [
        {
          "internalType": "bytes4",
          "name": "interfaceId",
          "type": "bytes4"
        }
      ],
      "name": "supportsInterface",
      "outputs": [
        {
          "internalType": "bool",
          "name": "",
          "type": "bool"
        }
      ],
      "stateMutability": "view",
      "type": "function"
    },
    {
      "inputs": [],
      "name": "symbol",
      "outputs": [
        {
          "internalType": "string",
          "name": "",
          "type": "string"
        }
      ],
      "stateMutability": "view",
      "type": "function"
    },
    {
      "inputs": [
        {
          "internalType": "uint256",
          "name": "tokenId",
          "type": "uint256"
        }
      ],
      "name": "tokenURI",
      "outputs": [
        {
          "internalType": "string",
          "name": "",
          "type": "string"
        }
      ],
      "stateMutability": "view",
      "type": "function"
    },
    {
      "inputs": [],
      "name": "totalTokens",
      "outputs": [
        {
          "internalType": "uint256",
          "name": "",
          "type": "uint256"
        }
      ],
      "stateMutability": "view",
      "type": "function"
    },
    {
      "inputs": [
        {
          "internalType": "address",
          "name": "from",
          "type": "address"
        },
        {
          "internalType": "address",
          "name": "to",
          "type": "address"
        },
        {
          "internalType": "uint256",
          "name": "tokenId",
          "type": "uint256"
        }
      ],
      "name": "transferFrom",
      "outputs": [],
      "stateMutability": "nonpayable",
      "type": "function"
    },
    {
      "inputs": [
        {
          "internalType": "uint256",
          "name": "cert_no",
          "type": "uint256"
        },
        {
          "internalType": "address",
          "name": "newOwner",
          "type": "address"
        }
      ],
      "name": "transferGreenEnergyToken",
      "outputs": [],
      "stateMutability": "nonpayable",
      "type": "function"
    }
  ],
  "bytecode": "0x60806040523480156200001157600080fd5b506040518060400160405280601881526020017f477265656e20456e6572677920436572746966696361746500000000000000008152506040518060400160405280600381526020017f474543000000000000000000000000000000000000000000000000000000000081525081600090816200008f919062000324565b508060019081620000a1919062000324565b5050506200040b565b600081519050919050565b7f4e487b7100000000000000000000000000000000000000000000000000000000600052604160045260246000fd5b7f4e487b7100000000000000000000000000000000000000000000000000000000600052602260045260246000fd5b600060028204905060018216806200012c57607f821691505b602082108103620001425762000141620000e4565b5b50919050565b60008190508160005260206000209050919050565b60006020601f8301049050919050565b600082821b905092915050565b600060088302620001ac7fffffffffffffffffffffffffffffffffffffffffffffffffffffffffffffffff826200016d565b620001b886836200016d565b95508019841693508086168417925050509392505050565b6000819050919050565b6000819050919050565b600062000205620001ff620001f984620001d0565b620001da565b620001d0565b9050919050565b6000819050919050565b6200022183620001e4565b6200023962000230826200020c565b8484546200017a565b825550505050565b600090565b6200025062000241565b6200025d81848462000216565b505050565b5b8181101562000285576200027960008262000246565b60018101905062000263565b5050565b601f821115620002d4576200029e8162000148565b620002a9846200015d565b81016020851015620002b9578190505b620002d1620002c8856200015d565b83018262000262565b50505b505050565b600082821c905092915050565b6000620002f960001984600802620002d9565b1980831691505092915050565b6000620003148383620002e6565b9150826002028217905092915050565b6200032f82620000aa565b67ffffffffffffffff8111156200034b576200034a620000b5565b5b62000357825462000113565b6200036482828562000289565b600060209050601f8311600181146200039c576000841562000387578287015190505b62000393858262000306565b86555062000403565b601f198416620003ac8662000148565b60005b82811015620003d657848901518255600182019150602085019450602081019050620003af565b86831015620003f65784890151620003f2601f891682620002e6565b8355505b6001600288020188555050505b505050505050565b613592806200041b6000396000f3fe608060405234801561001057600080fd5b50600436106101365760003560e01c806370a08231116100b8578063c14a7c621161007c578063c14a7c6214610349578063c87b56dd14610365578063ce5cbc2314610395578063d4922295146103ca578063e985e9c5146103e8578063f8e76cc01461041857610136565b806370a08231146102a55780637e1c0c09146102d557806395d89b41146102f3578063a22cb46514610311578063b88d4fde1461032d57610136565b806323b872dd116100ff57806323b872dd1461020557806335154b301461022157806342842e0e1461023d5780635d689ced146102595780636352211e1461027557610136565b806256856a1461013b57806301ffc9a71461016b57806306fdde031461019b578063081812fc146101b9578063095ea7b3146101e9575b600080fd5b6101556004803603810190610150919061241d565b610448565b604051610162919061248b565b60405180910390f35b610185600480360381019061018091906124fe565b6104cd565b6040516101929190612546565b60405180910390f35b6101a36105af565b6040516101b091906125f1565b60405180910390f35b6101d360048036038101906101ce919061241d565b610641565b6040516101e0919061248b565b60405180910390f35b61020360048036038101906101fe919061263f565b61065d565b005b61021f600480360381019061021a919061267f565b610673565b005b61023b600480360381019061023691906126d2565b610775565b005b6102576004803603810190610252919061267f565b6109d4565b005b610273600480360381019061026e919061241d565b6109f4565b005b61028f600480360381019061028a919061241d565b610c3f565b60405161029c919061248b565b60405180910390f35b6102bf60048036038101906102ba9190612712565b610c51565b6040516102cc919061274e565b60405180910390f35b6102dd610d0b565b6040516102ea919061274e565b60405180910390f35b6102fb610d11565b60405161030891906125f1565b60405180910390f35b61032b60048036038101906103269190612795565b610da3565b005b6103476004803603810190610342919061290a565b610db9565b005b610363600480360381019061035e919061298d565b610dd6565b005b61037f600480360381019061037a919061241d565b610f78565b60405161038c91906125f1565b60405180910390f35b6103af60048036038101906103aa919061241d565b610fe1565b6040516103c1969594939291906129e0565b60405180910390f35b6103d26111aa565b6040516103df9190612c0a565b60405180910390f35b61040260048036038101906103fd9190612c2c565b61139a565b60405161040f9190612546565b60405180910390f35b610432600480360381019061042d919061241d565b61142e565b60405161043f9190612546565b60405180910390f35b60006104538261142e565b610492576040517f08c379a000000000000000000000000000000000000000000000000000000000815260040161048990612cb8565b60405180910390fd5b6007600083815260200190815260200160002060009054906101000a900473ffffffffffffffffffffffffffffffffffffffff169050919050565b60007f80ac58cd000000000000000000000000000000000000000000000000000000007bffffffffffffffffffffffffffffffffffffffffffffffffffffffff1916827bffffffffffffffffffffffffffffffffffffffffffffffffffffffff1916148061059857507f5b5e139f000000000000000000000000000000000000000000000000000000007bffffffffffffffffffffffffffffffffffffffffffffffffffffffff1916827bffffffffffffffffffffffffffffffffffffffffffffffffffffffff1916145b806105a857506105a78261149d565b5b9050919050565b6060600080546105be90612d07565b80601f01602080910402602001604051908101604052809291908181526020018280546105ea90612d07565b80156106375780601f1061060c57610100808354040283529160200191610637565b820191906000526020600020905b81548152906001019060200180831161061a57829003601f168201915b5050505050905090565b600061064c82611507565b506106568261158f565b9050919050565b61066f828261066a6115cc565b6115d4565b5050565b600073ffffffffffffffffffffffffffffffffffffffff168273ffffffffffffffffffffffffffffffffffffffff16036106e55760006040517f64a0ae920000000000000000000000000000000000000000000000000000000081526004016106dc919061248b565b60405180910390fd5b60006106f983836106f46115cc565b6115e6565b90508373ffffffffffffffffffffffffffffffffffffffff168173ffffffffffffffffffffffffffffffffffffffff161461076f578382826040517f64283d7b00000000000000000000000000000000000000000000000000000000815260040161076693929190612d38565b60405180910390fd5b50505050565b61077e8261142e565b6107bd576040517f08c379a00000000000000000000000000000000000000000000000000000000081526004016107b490612cb8565b60405180910390fd5b3373ffffffffffffffffffffffffffffffffffffffff166006600084815260200190815260200160002060010160009054906101000a900473ffffffffffffffffffffffffffffffffffffffff1673ffffffffffffffffffffffffffffffffffffffff1614610861576040517f08c379a000000000000000000000000000000000000000000000000000000000815260040161085890612de1565b60405180910390fd5b6006600083815260200190815260200160002060030160009054906101000a900460ff16156108c5576040517f08c379a00000000000000000000000000000000000000000000000000000000081526004016108bc90612e4d565b60405180910390fd5b336007600084815260200190815260200160002060006101000a81548173ffffffffffffffffffffffffffffffffffffffff021916908373ffffffffffffffffffffffffffffffffffffffff160217905550806006600084815260200190815260200160002060010160006101000a81548173ffffffffffffffffffffffffffffffffffffffff021916908373ffffffffffffffffffffffffffffffffffffffff1602179055506040518060400160405280600681526020017f636c6f73656400000000000000000000000000000000000000000000000000008152506006600084815260200190815260200160002060020190816109c49190613019565b506109d0338284611800565b5050565b6109ef83838360405180602001604052806000815250610db9565b505050565b6109fd8161142e565b610a3c576040517f08c379a0000000000000000000000000000000000000000000000000000000008152600401610a3390612cb8565b60405180910390fd5b3373ffffffffffffffffffffffffffffffffffffffff166006600083815260200190815260200160002060010160009054906101000a900473ffffffffffffffffffffffffffffffffffffffff1673ffffffffffffffffffffffffffffffffffffffff1614610ae0576040517f08c379a0000000000000000000000000000000000000000000000000000000008152600401610ad790612de1565b60405180910390fd5b6006600082815260200190815260200160002060030160009054906101000a900460ff16158015610b345750610e106006600083815260200190815260200160002060050154610b30919061311a565b4210155b8015610c075750604051602001610b4a906131a5565b6040516020818303038152906040528051906020012060066000838152602001908152602001600020600201604051602001610b86919061323d565b604051602081830303815290604052805190602001201480610c065750604051602001610bb2906132a0565b6040516020818303038152906040528051906020012060066000838152602001908152602001600020600201604051602001610bee919061323d565b60405160208183030381529060405280519060200120145b5b15610c3c5760016006600083815260200190815260200160002060030160006101000a81548160ff0219169083151502179055505b50565b6000610c4a82611507565b9050919050565b60008073ffffffffffffffffffffffffffffffffffffffff168273ffffffffffffffffffffffffffffffffffffffff1603610cc45760006040517f89c62b64000000000000000000000000000000000000000000000000000000008152600401610cbb919061248b565b60405180910390fd5b600360008373ffffffffffffffffffffffffffffffffffffffff1673ffffffffffffffffffffffffffffffffffffffff168152602001908152602001600020549050919050565b60085481565b606060018054610d2090612d07565b80601f0160208091040260200160405190810160405280929190818152602001828054610d4c90612d07565b8015610d995780601f10610d6e57610100808354040283529160200191610d99565b820191906000526020600020905b815481529060010190602001808311610d7c57829003601f168201915b5050505050905090565b610db5610dae6115cc565b838361196d565b5050565b610dc4848484610673565b610dd084848484611adc565b50505050565b610ddf8361142e565b15610e1f576040517f08c379a0000000000000000000000000000000000000000000000000000000008152600401610e1690613301565b60405180910390fd5b60006040518060c001604052808581526020013373ffffffffffffffffffffffffffffffffffffffff1681526020016040518060400160405280600481526020017f6f70656e00000000000000000000000000000000000000000000000000000000815250815260200160001515815260200184815260200183815250905080600660008681526020019081526020016000206000820151816000015560208201518160010160006101000a81548173ffffffffffffffffffffffffffffffffffffffff021916908373ffffffffffffffffffffffffffffffffffffffff1602179055506040820151816002019081610f189190613019565b5060608201518160030160006101000a81548160ff0219169083151502179055506080820151816004015560a08201518160050155905050610f5a3385611c93565b60086000815480929190610f6d90613321565b919050555050505050565b6060610f8382611507565b506000610f8e611cb1565b90506000815111610fae5760405180602001604052806000815250610fd9565b80610fb884611cc8565b604051602001610fc992919061339a565b6040516020818303038152906040525b915050919050565b60008060606000806000610ff48761142e565b611033576040517f08c379a000000000000000000000000000000000000000000000000000000000815260040161102a90612cb8565b60405180910390fd5b6000600660008981526020019081526020016000206040518060c0016040529081600082015481526020016001820160009054906101000a900473ffffffffffffffffffffffffffffffffffffffff1673ffffffffffffffffffffffffffffffffffffffff1673ffffffffffffffffffffffffffffffffffffffff1681526020016002820180546110c390612d07565b80601f01602080910402602001604051908101604052809291908181526020018280546110ef90612d07565b801561113c5780601f106111115761010080835404028352916020019161113c565b820191906000526020600020905b81548152906001019060200180831161111f57829003601f168201915b505050505081526020016003820160009054906101000a900460ff16151515158152602001600482015481526020016005820154815250509050806000015181602001518260400151836060015184608001518560a001519650965096509650965096505091939550919395565b6060600060085467ffffffffffffffff8111156111ca576111c96127df565b5b60405190808252806020026020018201604052801561120357816020015b6111f0612385565b8152602001906001900390816111e85790505b5090506000600190505b600854811161139257600660008281526020019081526020016000206040518060c0016040529081600082015481526020016001820160009054906101000a900473ffffffffffffffffffffffffffffffffffffffff1673ffffffffffffffffffffffffffffffffffffffff1673ffffffffffffffffffffffffffffffffffffffff1681526020016002820180546112a490612d07565b80601f01602080910402602001604051908101604052809291908181526020018280546112d090612d07565b801561131d5780601f106112f25761010080835404028352916020019161131d565b820191906000526020600020905b81548152906001019060200180831161130057829003601f168201915b505050505081526020016003820160009054906101000a900460ff16151515158152602001600482015481526020016005820154815250508260018361136391906133be565b81518110611374576113736133f2565b5b6020026020010181905250808061138a90613321565b91505061120d565b508091505090565b6000600560008473ffffffffffffffffffffffffffffffffffffffff1673ffffffffffffffffffffffffffffffffffffffff16815260200190815260200160002060008373ffffffffffffffffffffffffffffffffffffffff1673ffffffffffffffffffffffffffffffffffffffff16815260200190815260200160002060009054906101000a900460ff16905092915050565b60008073ffffffffffffffffffffffffffffffffffffffff166006600084815260200190815260200160002060010160009054906101000a900473ffffffffffffffffffffffffffffffffffffffff1673ffffffffffffffffffffffffffffffffffffffff1614159050919050565b60007f01ffc9a7000000000000000000000000000000000000000000000000000000007bffffffffffffffffffffffffffffffffffffffffffffffffffffffff1916827bffffffffffffffffffffffffffffffffffffffffffffffffffffffff1916149050919050565b60008061151383611d96565b9050600073ffffffffffffffffffffffffffffffffffffffff168173ffffffffffffffffffffffffffffffffffffffff160361158657826040517f7e27328900000000000000000000000000000000000000000000000000000000815260040161157d919061274e565b60405180910390fd5b80915050919050565b60006004600083815260200190815260200160002060009054906101000a900473ffffffffffffffffffffffffffffffffffffffff169050919050565b600033905090565b6115e18383836001611dd3565b505050565b6000806115f284611d96565b9050600073ffffffffffffffffffffffffffffffffffffffff168373ffffffffffffffffffffffffffffffffffffffff161461163457611633818486611f98565b5b600073ffffffffffffffffffffffffffffffffffffffff168173ffffffffffffffffffffffffffffffffffffffff16146116c557611676600085600080611dd3565b6001600360008373ffffffffffffffffffffffffffffffffffffffff1673ffffffffffffffffffffffffffffffffffffffff168152602001908152602001600020600082825403925050819055505b600073ffffffffffffffffffffffffffffffffffffffff168573ffffffffffffffffffffffffffffffffffffffff1614611748576001600360008773ffffffffffffffffffffffffffffffffffffffff1673ffffffffffffffffffffffffffffffffffffffff168152602001908152602001600020600082825401925050819055505b846002600086815260200190815260200160002060006101000a81548173ffffffffffffffffffffffffffffffffffffffff021916908373ffffffffffffffffffffffffffffffffffffffff160217905550838573ffffffffffffffffffffffffffffffffffffffff168273ffffffffffffffffffffffffffffffffffffffff167fddf252ad1be2c89b69c2b068fc378daa952ba7f163c4a11628f55a4df523b3ef60405160405180910390a4809150509392505050565b600073ffffffffffffffffffffffffffffffffffffffff168273ffffffffffffffffffffffffffffffffffffffff16036118725760006040517f64a0ae92000000000000000000000000000000000000000000000000000000008152600401611869919061248b565b60405180910390fd5b6000611880838360006115e6565b9050600073ffffffffffffffffffffffffffffffffffffffff168173ffffffffffffffffffffffffffffffffffffffff16036118f357816040517f7e2732890000000000000000000000000000000000000000000000000000000081526004016118ea919061274e565b60405180910390fd5b8373ffffffffffffffffffffffffffffffffffffffff168173ffffffffffffffffffffffffffffffffffffffff1614611967578382826040517f64283d7b00000000000000000000000000000000000000000000000000000000815260040161195e93929190612d38565b60405180910390fd5b50505050565b600073ffffffffffffffffffffffffffffffffffffffff168273ffffffffffffffffffffffffffffffffffffffff16036119de57816040517f5b08ba180000000000000000000000000000000000000000000000000000000081526004016119d5919061248b565b60405180910390fd5b80600560008573ffffffffffffffffffffffffffffffffffffffff1673ffffffffffffffffffffffffffffffffffffffff16815260200190815260200160002060008473ffffffffffffffffffffffffffffffffffffffff1673ffffffffffffffffffffffffffffffffffffffff16815260200190815260200160002060006101000a81548160ff0219169083151502179055508173ffffffffffffffffffffffffffffffffffffffff168373ffffffffffffffffffffffffffffffffffffffff167f17307eab39ab6107e8899845ad3d59bd9653f200f220920489ca2b5937696c3183604051611acf9190612546565b60405180910390a3505050565b60008373ffffffffffffffffffffffffffffffffffffffff163b1115611c8d578273ffffffffffffffffffffffffffffffffffffffff1663150b7a02611b206115cc565b8685856040518563ffffffff1660e01b8152600401611b429493929190613476565b6020604051808303816000875af1925050508015611b7e57506040513d601f19601f82011682018060405250810190611b7b91906134d7565b60015b611c02573d8060008114611bae576040519150601f19603f3d011682016040523d82523d6000602084013e611bb3565b606091505b506000815103611bfa57836040517f64a0ae92000000000000000000000000000000000000000000000000000000008152600401611bf1919061248b565b60405180910390fd5b805181602001fd5b63150b7a0260e01b7bffffffffffffffffffffffffffffffffffffffffffffffffffffffff1916817bffffffffffffffffffffffffffffffffffffffffffffffffffffffff191614611c8b57836040517f64a0ae92000000000000000000000000000000000000000000000000000000008152600401611c82919061248b565b60405180910390fd5b505b50505050565b611cad82826040518060200160405280600081525061205c565b5050565b606060405180602001604052806000815250905090565b606060006001611cd784612078565b01905060008167ffffffffffffffff811115611cf657611cf56127df565b5b6040519080825280601f01601f191660200182016040528015611d285781602001600182028036833780820191505090505b509050600082602001820190505b600115611d8b578080600190039150507f3031323334353637383961626364656600000000000000000000000000000000600a86061a8153600a8581611d7f57611d7e613504565b5b04945060008503611d36575b819350505050919050565b60006002600083815260200190815260200160002060009054906101000a900473ffffffffffffffffffffffffffffffffffffffff169050919050565b8080611e0c5750600073ffffffffffffffffffffffffffffffffffffffff168273ffffffffffffffffffffffffffffffffffffffff1614155b15611f40576000611e1c84611507565b9050600073ffffffffffffffffffffffffffffffffffffffff168373ffffffffffffffffffffffffffffffffffffffff1614158015611e8757508273ffffffffffffffffffffffffffffffffffffffff168173ffffffffffffffffffffffffffffffffffffffff1614155b8015611e9a5750611e98818461139a565b155b15611edc57826040517fa9fbf51f000000000000000000000000000000000000000000000000000000008152600401611ed3919061248b565b60405180910390fd5b8115611f3e57838573ffffffffffffffffffffffffffffffffffffffff168273ffffffffffffffffffffffffffffffffffffffff167f8c5be1e5ebec7d5bd14f71427d1e84f3dd0314c0f7b2291e5b200ac8c7c3b92560405160405180910390a45b505b836004600085815260200190815260200160002060006101000a81548173ffffffffffffffffffffffffffffffffffffffff021916908373ffffffffffffffffffffffffffffffffffffffff16021790555050505050565b611fa38383836121cb565b61205757600073ffffffffffffffffffffffffffffffffffffffff168373ffffffffffffffffffffffffffffffffffffffff160361201857806040517f7e27328900000000000000000000000000000000000000000000000000000000815260040161200f919061274e565b60405180910390fd5b81816040517f177e802f00000000000000000000000000000000000000000000000000000000815260040161204e929190613533565b60405180910390fd5b505050565b612066838361228c565b6120736000848484611adc565b505050565b600080600090507a184f03e93ff9f4daa797ed6e38ed64bf6a1f01000000000000000083106120d6577a184f03e93ff9f4daa797ed6e38ed64bf6a1f01000000000000000083816120cc576120cb613504565b5b0492506040810190505b6d04ee2d6d415b85acef81000000008310612113576d04ee2d6d415b85acef8100000000838161210957612108613504565b5b0492506020810190505b662386f26fc10000831061214257662386f26fc10000838161213857612137613504565b5b0492506010810190505b6305f5e100831061216b576305f5e100838161216157612160613504565b5b0492506008810190505b612710831061219057612710838161218657612185613504565b5b0492506004810190505b606483106121b357606483816121a9576121a8613504565b5b0492506002810190505b600a83106121c2576001810190505b80915050919050565b60008073ffffffffffffffffffffffffffffffffffffffff168373ffffffffffffffffffffffffffffffffffffffff161415801561228357508273ffffffffffffffffffffffffffffffffffffffff168473ffffffffffffffffffffffffffffffffffffffff1614806122445750612243848461139a565b5b8061228257508273ffffffffffffffffffffffffffffffffffffffff1661226a8361158f565b73ffffffffffffffffffffffffffffffffffffffff16145b5b90509392505050565b600073ffffffffffffffffffffffffffffffffffffffff168273ffffffffffffffffffffffffffffffffffffffff16036122fe5760006040517f64a0ae920000000000000000000000000000000000000000000000000000000081526004016122f5919061248b565b60405180910390fd5b600061230c838360006115e6565b9050600073ffffffffffffffffffffffffffffffffffffffff168173ffffffffffffffffffffffffffffffffffffffff16146123805760006040517f73c6ac6e000000000000000000000000000000000000000000000000000000008152600401612377919061248b565b60405180910390fd5b505050565b6040518060c0016040528060008152602001600073ffffffffffffffffffffffffffffffffffffffff1681526020016060815260200160001515815260200160008152602001600081525090565b6000604051905090565b600080fd5b600080fd5b6000819050919050565b6123fa816123e7565b811461240557600080fd5b50565b600081359050612417816123f1565b92915050565b600060208284031215612433576124326123dd565b5b600061244184828501612408565b91505092915050565b600073ffffffffffffffffffffffffffffffffffffffff82169050919050565b60006124758261244a565b9050919050565b6124858161246a565b82525050565b60006020820190506124a0600083018461247c565b92915050565b60007fffffffff0000000000000000000000000000000000000000000000000000000082169050919050565b6124db816124a6565b81146124e657600080fd5b50565b6000813590506124f8816124d2565b92915050565b600060208284031215612514576125136123dd565b5b6000612522848285016124e9565b91505092915050565b60008115159050919050565b6125408161252b565b82525050565b600060208201905061255b6000830184612537565b92915050565b600081519050919050565b600082825260208201905092915050565b60005b8381101561259b578082015181840152602081019050612580565b60008484015250505050565b6000601f19601f8301169050919050565b60006125c382612561565b6125cd818561256c565b93506125dd81856020860161257d565b6125e6816125a7565b840191505092915050565b6000602082019050818103600083015261260b81846125b8565b905092915050565b61261c8161246a565b811461262757600080fd5b50565b60008135905061263981612613565b92915050565b60008060408385031215612656576126556123dd565b5b60006126648582860161262a565b925050602061267585828601612408565b9150509250929050565b600080600060608486031215612698576126976123dd565b5b60006126a68682870161262a565b93505060206126b78682870161262a565b92505060406126c886828701612408565b9150509250925092565b600080604083850312156126e9576126e86123dd565b5b60006126f785828601612408565b92505060206127088582860161262a565b9150509250929050565b600060208284031215612728576127276123dd565b5b60006127368482850161262a565b91505092915050565b612748816123e7565b82525050565b6000602082019050612763600083018461273f565b92915050565b6127728161252b565b811461277d57600080fd5b50565b60008135905061278f81612769565b92915050565b600080604083850312156127ac576127ab6123dd565b5b60006127ba8582860161262a565b92505060206127cb85828601612780565b9150509250929050565b600080fd5b600080fd5b7f4e487b7100000000000000000000000000000000000000000000000000000000600052604160045260246000fd5b612817826125a7565b810181811067ffffffffffffffff82111715612836576128356127df565b5b80604052505050565b60006128496123d3565b9050612855828261280e565b919050565b600067ffffffffffffffff821115612875576128746127df565b5b61287e826125a7565b9050602081019050919050565b82818337600083830152505050565b60006128ad6128a88461285a565b61283f565b9050828152602081018484840111156128c9576128c86127da565b5b6128d484828561288b565b509392505050565b600082601f8301126128f1576128f06127d5565b5b813561290184826020860161289a565b91505092915050565b60008060008060808587031215612924576129236123dd565b5b60006129328782880161262a565b94505060206129438782880161262a565b935050604061295487828801612408565b925050606085013567ffffffffffffffff811115612975576129746123e2565b5b612981878288016128dc565b91505092959194509250565b6000806000606084860312156129a6576129a56123dd565b5b60006129b486828701612408565b93505060206129c586828701612408565b92505060406129d686828701612408565b9150509250925092565b600060c0820190506129f5600083018961273f565b612a02602083018861247c565b8181036040830152612a1481876125b8565b9050612a236060830186612537565b612a30608083018561273f565b612a3d60a083018461273f565b979650505050505050565b600081519050919050565b600082825260208201905092915050565b6000819050602082019050919050565b612a7d816123e7565b82525050565b612a8c8161246a565b82525050565b600082825260208201905092915050565b6000612aae82612561565b612ab88185612a92565b9350612ac881856020860161257d565b612ad1816125a7565b840191505092915050565b612ae58161252b565b82525050565b600060c083016000830151612b036000860182612a74565b506020830151612b166020860182612a83565b5060408301518482036040860152612b2e8282612aa3565b9150506060830151612b436060860182612adc565b506080830151612b566080860182612a74565b5060a0830151612b6960a0860182612a74565b508091505092915050565b6000612b808383612aeb565b905092915050565b6000602082019050919050565b6000612ba082612a48565b612baa8185612a53565b935083602082028501612bbc85612a64565b8060005b85811015612bf85784840389528151612bd98582612b74565b9450612be483612b88565b925060208a01995050600181019050612bc0565b50829750879550505050505092915050565b60006020820190508181036000830152612c248184612b95565b905092915050565b60008060408385031215612c4357612c426123dd565b5b6000612c518582860161262a565b9250506020612c628582860161262a565b9150509250929050565b7f546f6b656e20646f6573206e6f74206578697374000000000000000000000000600082015250565b6000612ca260148361256c565b9150612cad82612c6c565b602082019050919050565b60006020820190508181036000830152612cd181612c95565b9050919050565b7f4e487b7100000000000000000000000000000000000000000000000000000000600052602260045260246000fd5b60006002820490506001821680612d1f57607f821691505b602082108103612d3257612d31612cd8565b5b50919050565b6000606082019050612d4d600083018661247c565b612d5a602083018561273f565b612d67604083018461247c565b949350505050565b7f596f7520617265206e6f7420746865206f776e6572206f66207468697320746f60008201527f6b656e2e00000000000000000000000000000000000000000000000000000000602082015250565b6000612dcb60248361256c565b9150612dd682612d6f565b604082019050919050565b60006020820190508181036000830152612dfa81612dbe565b9050919050565b7f596f752063616e6e6f74207472616e73666572207468697320746f6b656e2e00600082015250565b6000612e37601f8361256c565b9150612e4282612e01565b602082019050919050565b60006020820190508181036000830152612e6681612e2a565b9050919050565b60008190508160005260206000209050919050565b60006020601f8301049050919050565b600082821b905092915050565b600060088302612ecf7fffffffffffffffffffffffffffffffffffffffffffffffffffffffffffffffff82612e92565b612ed98683612e92565b95508019841693508086168417925050509392505050565b6000819050919050565b6000612f16612f11612f0c846123e7565b612ef1565b6123e7565b9050919050565b6000819050919050565b612f3083612efb565b612f44612f3c82612f1d565b848454612e9f565b825550505050565b600090565b612f59612f4c565b612f64818484612f27565b505050565b5b81811015612f8857612f7d600082612f51565b600181019050612f6a565b5050565b601f821115612fcd57612f9e81612e6d565b612fa784612e82565b81016020851015612fb6578190505b612fca612fc285612e82565b830182612f69565b50505b505050565b600082821c905092915050565b6000612ff060001984600802612fd2565b1980831691505092915050565b60006130098383612fdf565b9150826002028217905092915050565b61302282612561565b67ffffffffffffffff81111561303b5761303a6127df565b5b6130458254612d07565b613050828285612f8c565b600060209050601f8311600181146130835760008415613071578287015190505b61307b8582612ffd565b8655506130e3565b601f19841661309186612e6d565b60005b828110156130b957848901518255600182019150602085019450602081019050613094565b868310156130d657848901516130d2601f891682612fdf565b8355505b6001600288020188555050505b505050505050565b7f4e487b7100000000000000000000000000000000000000000000000000000000600052601160045260246000fd5b6000613125826123e7565b9150613130836123e7565b9250828201905080821115613148576131476130eb565b5b92915050565b600081905092915050565b7f6f70656e00000000000000000000000000000000000000000000000000000000600082015250565b600061318f60048361314e565b915061319a82613159565b600482019050919050565b60006131b082613182565b9150819050919050565b600081546131c781612d07565b6131d1818661314e565b945060018216600081146131ec576001811461320157613234565b60ff1983168652811515820286019350613234565b61320a85612e6d565b60005b8381101561322c5781548189015260018201915060208101905061320d565b838801955050505b50505092915050565b600061324982846131ba565b915081905092915050565b7f636c6f7365640000000000000000000000000000000000000000000000000000600082015250565b600061328a60068361314e565b915061329582613254565b600682019050919050565b60006132ab8261327d565b9150819050919050565b7f546f6b656e20616c726561647920657869737473000000000000000000000000600082015250565b60006132eb60148361256c565b91506132f6826132b5565b602082019050919050565b6000602082019050818103600083015261331a816132de565b9050919050565b600061332c826123e7565b91507fffffffffffffffffffffffffffffffffffffffffffffffffffffffffffffffff820361335e5761335d6130eb565b5b600182019050919050565b600061337482612561565b61337e818561314e565b935061338e81856020860161257d565b80840191505092915050565b60006133a68285613369565b91506133b28284613369565b91508190509392505050565b60006133c9826123e7565b91506133d4836123e7565b92508282039050818111156133ec576133eb6130eb565b5b92915050565b7f4e487b7100000000000000000000000000000000000000000000000000000000600052603260045260246000fd5b600081519050919050565b600082825260208201905092915050565b600061344882613421565b613452818561342c565b935061346281856020860161257d565b61346b816125a7565b840191505092915050565b600060808201905061348b600083018761247c565b613498602083018661247c565b6134a5604083018561273f565b81810360608301526134b7818461343d565b905095945050505050565b6000815190506134d1816124d2565b92915050565b6000602082840312156134ed576134ec6123dd565b5b60006134fb848285016134c2565b91505092915050565b7f4e487b7100000000000000000000000000000000000000000000000000000000600052601260045260246000fd5b6000604082019050613548600083018561247c565b613555602083018461273f565b939250505056fea26469706673582212200ba22eca544553f6c598c8f2e404a2fab658f0a9af16f4785eb22282110232f964736f6c63430008140033",
  "linkReferences": {},
  "deployedLinkReferences": {}
}